:020000040800F2
:100000000080012009120008B5020008BB020008A8
:10001000C1020008C7020008CD020008000000006D
:10002000000000000000000000000000D3020008F3
:10003000E102000800000000EF020008FD020008D5
:1000400059120008591200085912000859120008E4
:1000500059120008591200085912000859120008D4
:1000600059120008591200085912000859120008C4
:1000700059120008591200085912000859120008B4
:1000800059120008591200085912000859120008A4
:100090005912000859120008591200085912000894
:1000A0005912000859120008591200085912000884
:1000B0005912000859120008591200085912000874
:1000C0005912000859120008591200085912000864
:1000D0005912000859120008591200085912000854
:1000E0005912000859120008591200085912000844
:1000F0005912000859120008591200085912000834
:100100005912000859120008591200085912000823
:100110005912000859120008591200085912000813
:100120005912000859120008591200085912000803
:1001300059120008591200085912000859120008F3
:1001400059120008591200085912000859120008E3
:1001500059120008591200085912000859120008D3
:1001600059120008591200085912000859120008C3
:100170005912000859120008591200080000000026
:08018000591200085912000891
:1001880010B5054C237833B9044B13B10448AFF3C9
:1001980000800123237010BD0C0000200000000027
:1001A800B412000808B5034B1BB103490348AFF369
:1001B800008008BD0000000010000020B4120008F4
:1001C80080B500AF00F0AEF800F001F8FEE780B5AA
:1001D80096B000AF07F1140344220021184601F03D
:1001E8005DF83B4600221A605A609A60DA601A612C
:1001F8004FF4007000F0FCF90346002B01D000F02A
:100208002CF810237B610123FB6200233B636023EE
:100218007B630023FB6307F11403184600F03EFAE2
:100228000346002B01D000F018F80F233B60002391
:100238007B600023BB600023FB6000233B613B46DF
:100248000021184600F010FE0346002B01D000F0F4
:1002580004F800BF5837BD4680BD80B400AF72B601
:10026800FEE7000080B483B000AF0F4A0E4B1B6E50
:1002780043F0010313660C4B1B6E03F001037B6014
:100288007B68094A084B9B6D43F080539365064B86
:100298009B6D03F080533B603B6800BF0C37BD4645
:1002A8005DF8047B704700BF0010024080B400AFC7
:1002B800FEE780B400AFFEE780B400AFFEE780B48D
:1002C80000AFFEE780B400AFFEE780B400AF00BF28
:1002D800BD465DF8047B704780B400AF00BFBD46E3
:1002E8005DF8047B704780B400AF00BFBD465DF881
:1002F800047B704780B500AF00F068F800BF80BD90
:1003080080B400AF064A064BD3F8883043F4700334
:10031800C2F8883000BFBD465DF8047B704700BF57
:1003280000ED00E080B582B000AF0023FB71032030
:1003380000F01CF90F2000F00DF80346002B02D046
:100348000123FB7101E0FFF78DFFFB7918460837A1
:10035800BD4680BD80B584B000AF78600023FB73D4
:10036800174B1B78002B23D0164B1A68144B1B789D
:1003780019464FF47A73B3FBF1F3B2FBF3F3184663
:1003880000F01BF90346002B0FD17B680F2B09D80F
:10039800002279684FF0FF3000F0F3F80A4A7B68D2
:1003A800136007E00123FB7304E00123FB7301E002
:1003B8000123FB73FB7B18461037BD4680BD00BF89
:1003C80008000020000000200400002080B400AFD6
:1003D800064B1B781A46064B1B681344044A1360E5
:1003E80000BFBD465DF8047B704700BF08000020D1
:1003F8002800002080B400AF034B1B681846BD4698
:100408005DF8047B704700BF2800002080B485B0E9
:1004180000AF78607B6803F00703FB600C4BDB6878
:10042800BB60BA684FF6FF031340BB60FB681A0253
:10043800BB68134343F0BF6343F40033BB60044A13
:10044800BB68D36000BF1437BD465DF8047B7047B6
:1004580000ED00E080B400AF044BDB681B0A03F03A
:1004680007031846BD465DF8047B704700ED00E0C1
:1004780080B483B000AF03463960FB7197F9073049
:10048800002B0ADB0D4997F907303A68D2B21201FE
:10049800D2B20B4483F800230AE00949FB7903F040
:1004A8000F03043B3A68D2B21201D2B20B441A7657
:1004B80000BF0C37BD465DF8047B704700E100E0E3
:1004C80000ED00E080B489B000AFF860B9607A60F0
:1004D800FB6803F00703FB61FB69C3F10703042B07
:1004E80028BF0423BB61FB690433062B02D9FB69CF
:1004F800033B00E000237B610122BB6902FA03F39E
:100508005A1EBB681A407B699A4001217B6901FA2F
:1005180003F3591E7B680B40134318462437BD4626
:100528005DF8047B7047000080B582B000AF78604A
:100538007B68013BB3F1807F01D301230FE00A4AB6
:100548007B68013B53600F214FF0FF30FFF790FFAE
:10055800054B00229A60044B07221A6000231846B4
:100568000837BD4680BD00BF10E000E080B582B00E
:1005780000AF78607868FFF749FF00BF0837BD46CD
:1005880080BD80B586B000AF0346B9607A60FB7362
:1005980000237B61FFF75EFF78617A68B968786944
:1005A800FFF790FF024697F90F3011461846FFF7FC
:1005B8005FFF00BF1837BD4680BD80B582B000AF71
:1005C80078607868FFF7B0FF034618460837BD46DD
:1005D80080BD000080B400AF044B1B6803F4C06307
:1005E8001846BD465DF8047B704700BF00700040A8
:1005F80080B485B000AF78607B68B3F5007F30D1F8
:10060800234B1B6803F4C063B3F5007F38D0204A3E
:100618001F4B1B6823F4C06343F4007313601D4B26
:100628001B68322202FB03F31B4AA2FB03239B0C29
:100638000133FB6002E0FB68013BFB60144B5B6924
:1006480003F48063B3F5806F02D1FB68002BF2D10D
:100658000F4B5B6903F48063B3F5806F10D10323FC
:100668000FE00B4B1B6803F4C063B3F5806F07D032
:10067800074A074B1B6823F4C06343F48063136085
:10068800002318461437BD465DF8047B704700BF49
:10069800007000400000002083DE1B4380B588B056
:1006A80000AF78607B68002B01D10123D4E3A14B14
:1006B8009B6803F00C03BB619E4BDB6803F00303EC
:1006C8007B617B681B6803F01003002B00F0E4805B
:1006D800BB69002B07D0BB690C2B40F08B807B6972
:1006E800012B40F08780934B1B6803F00203002B1B
:1006F80005D07B689B69002B01D10123ACE37B68A3
:100708001A6A8C4B1B6803F00803002B04D0894B32
:100718001B6803F0F00305E0864BD3F894301B09FF
:1007280003F0F0039A4223D97B681B6A184600F04D
:1007380007FD0346002B01D001238DE37D4A7D4B45
:100748001B6843F0080313607A497A4B1B6823F04F
:10075800F0027B681B6A13430B607649754B5B6834
:1007680023F47F427B68DB691B0213434B6025E05F
:10077800704A704B1B6843F0080313606D496D4B5A
:100788001B6823F0F0027B681B6A13430B606949FE
:10079800684B5B6823F47F427B68DB691B02134369
:1007A8004B60BB69002B09D17B681B6A184600F0B7
:1007B800C7FC0346002B01D001234DE300F036FCB3
:1007C80001465C4B9B681B0903F00F035A4AD35C34
:1007D80003F01F0321FA03F3584A1360584B1B68B0
:1007E8001846FFF7B7FD0346FB73FB7B002B52D07F
:1007F800FB7B31E37B689B69002B32D04D4A4D4B24
:100808001B6843F001031360FFF7F4FD386108E04B
:10081800FFF7F0FD02463B69D31A022B01D90323E7
:100828001AE3444B1B6803F00203002BF0D0414A43
:10083800404B1B6843F0080313603E493D4B1B685F
:1008480023F0F0027B681B6A13430B603949394B6C
:100858005B6823F47F427B68DB691B0213434B60B0
:100868001AE0344A334B1B6823F001031360FFF787
:10087800C1FD386108E0FFF7BDFD02463B69D31AA8
:10088800022B01D90323E7E22A4B1B6803F002037A
:10089800002BF0D100E000BF7B681B6803F0010368
:1008A800002B74D0BB69082B05D0BB690C2B0ED16B
:1008B8007B69032B0BD11F4B1B6803F40033002B00
:1008C80064D07B685B68002B60D10123C4E27B683D
:1008D8005B68B3F5803F06D1164A164B1B6843F494
:1008E800803313601DE07B685B68B3F5A02F0CD1E3
:1008F800104A104B1B6843F4802313600D4A0D4BBC
:100908001B6843F4803313600BE00A4A094B1B68E9
:1009180023F480331360074A064B1B6823F48023B3
:1009280013607B685B68002B1CD0FFF763FD3861A0
:1009380011E000BF00100240CC12000800000020A7
:1009480004000020FFF756FD02463B69D31A642BCA
:1009580001D9032380E2AF4B1B6803F40033002B5B
:10096800F0D014E0FFF746FD386108E0FFF742FDDC
:1009780002463B69D31A642B01D903236CE2A54BC9
:100988001B6803F40033002BF0D100E000BF7B6844
:100998001B6803F00203002B60D0BB69042B05D051
:1009A800BB690C2B19D17B69022B16D1994B1B689B
:1009B80003F48063002B05D07B68DB68002B01D132
:1009C800012349E29349934B5B6823F0F8527B6813
:1009D8001B691B0613434B6040E07B68DB68002BF8
:1009E80023D08C4A8B4B1B6843F480731360FFF74A
:1009F80001FD386108E0FFF7FDFC02463B69D31AA8
:100A0800022B01D9032327E2824B1B6803F480637E
:100A1800002BF0D07F497F4B5B6823F0F8527B684E
:100A28001B691B0613434B6018E07A4A794B1B6815
:100A380023F480731360FFF7DDFC386108E0FFF7EB
:100A4800D9FC02463B69D31A022B01D9032303E2DE
:100A5800704B1B6803F48063002BF0D17B681B6824
:100A680003F00803002B3CD07B685B69002B1CD08B
:100A7800684A684BD3F8943043F00103C2F89430C5
:100A8800FFF7B8FC386108E0FFF7B4FC02463B69A1
:100A9800D31A022B01D90323DEE15E4BD3F894303D
:100AA80003F00203002BEFD01BE05A4A594BD3F84E
:100AB800943023F00103C2F89430FFF79BFC3861AF
:100AC80008E0FFF797FC02463B69D31A022B01D9CD
:100AD8000323C1E14F4BD3F8943003F00203002BFA
:100AE800EFD17B681B6803F00403002B00F0A6809D
:100AF8000023FB77474B9B6D03F08053002B0DD1F0
:100B0800444A444B9B6D43F080539365414B9B6D26
:100B180003F08053BB60BB680123FB773E4B1B6827
:100B280003F48073002B18D13B4A3B4B1B6843F4FA
:100B380080731360FFF75EFC386108E0FFF75AFC2A
:100B480002463B69D31A022B01D9032384E1324BB5
:100B58001B6803F48073002BF0D07B689B68012B23
:100B680008D12C4A2B4BD3F8903043F00103C2F83C
:100B7800903024E07B689B68052B10D1254A254BD3
:100B8800D3F8903043F00403C2F89030214A214B47
:100B9800D3F8903043F00103C2F890300FE01D4ABB
:100BA8001C4BD3F8903023F00103C2F89030194A57
:100BB800184BD3F8903023F00403C2F890307B68C8
:100BC8009B68002B16D0FFF715FC38610AE0FFF789
:100BD80011FC02463B69D31A41F28832934201D98B
:100BE800032339E10B4BD3F8903003F00203002BB9
:100BF800EDD01AE0FFF7FEFB38610FE0FFF7FAFBD4
:100C080002463B69D31A41F28832934206D903233C
:100C180022E100BF0010024000700040904BD3F862
:100C2800903003F00203002BE8D1FB7F012B05D1A4
:100C38008B4A8B4B9B6D23F0805393657B689B6A33
:100C4800002B00F008817B689B6A022B40F0D08063
:100C5800834BDB687B617B6903F003027B68DB6A9B
:100C68009A4230D17B6903F070027B681B6B013BB1
:100C78001B019A4227D17B6903F4FE427B685B6BB8
:100C88001B029A421FD17B6903F400337A68926B86
:100C9800072A14BF01220022D2B2934213D17B69E2
:100CA80003F4C0027B68DB6B5B08013B5B059A427F
:100CB80009D17B6903F0C0627B681B6C5B08013B50
:100CC8005B069A426ED0BB690C2B69D0644B1B68DB
:100CD80003F08063002B05D1614B1B6803F0805340
:100CE800002B01D00123B7E05D4A5D4B1B6823F060
:100CF80080731360FFF77EFB386108E0FFF77AFB2B
:100D080002463B69D31A022B01D90323A4E0544BB2
:100D18001B6803F00073002BF0D15148504BDA6880
:100D2800504B13407A68D16A7A68126B013A120103
:100D380011437A68526B120211437A68D26B5208D7
:100D4800013A520511437A68126C5208013A520668
:100D580011437A68926B120952040A431343C36021
:100D68003F4A3F4B1B6843F0807313603C4A3C4B3F
:100D7800DB6843F08073D360FFF73CFB386108E021
:100D8800FFF738FB02463B69D31A022B01D903232C
:100D980062E0334B1B6803F00073002BF0D05AE07D
:100DA800012359E02E4B1B6803F00073002B52D12E
:100DB8002B4A2B4B1B6843F080731360284A284B3F
:100DC800DB6843F08073D360FFF714FB386108E0F9
:100DD800FFF710FB02463B69D31A022B01D9032304
:100DE8003AE01F4B1B6803F00073002BF0D032E091
:100DF800BB690C2B2DD01A4A194B1B6823F0807342
:100E08001360174B1B6803F02053002B05D1144ABD
:100E1800134BDB6823F00303D360114A104BDB68E4
:100E280023F0887323F48033D360FFF7E3FA386143
:100E380008E0FFF7DFFA02463B69D31A022B01D913
:100E4800032309E0064B1B6803F00073002BF0D165
:100E580001E0012300E0002318462037BD4680BD8D
:100E6800001002408C809DF980B584B000AF786096
:100E780039607B68002B01D10123C8E0664B1B68F1
:100E880003F007023B689A4210D26349624B1B6821
:100E980023F007023B6813430B605F4B1B6803F0AA
:100EA80007023B689A4201D00123B0E07B681B68C7
:100EB80003F00103002B4CD07B685B68032B07D140
:100EC800564B1B6803F00073002B21D101239EE0D1
:100ED8007B685B68022B07D1504B1B6803F4003317
:100EE800002B15D1012392E07B685B68002B07D1AA
:100EF8004A4B1B6803F00203002B09D1012386E04B
:100F0800464B1B6803F48063002B01D101237EE06C
:100F18004249424B9B6823F003027B685B6813439A
:100F28008B60FFF767FAF8600AE0FFF763FA02469A
:100F3800FB68D31A41F28832934201D9032366E051
:100F4800364B9B6803F00C027B685B689B009A42F7
:100F5800EBD17B681B6803F00203002B08D02F49F4
:100F68002E4B9B6823F0F0027B689B6813438B60D1
:100F7800294B1B6803F007023B689A4210D926499F
:100F8800254B1B6823F007023B6813430B60224B79
:100F98001B6803F007023B689A4201D0012336E040
:100FA8007B681B6803F00403002B08D01B491B4B0C
:100FB8009B6823F4E0627B68DB6813438B607B6883
:100FC8001B6803F00803002B09D01449134B9B68D6
:100FD80023F460527B681B69DB0013438B6000F0CD
:100FE80025F801460D4B9B681B0903F00F030C4ABB
:100FF800D35C03F01F0321FA03F30A4A13600A4B78
:101008001B681846FFF7A6F90346FB72FB7A1846D9
:101018001037BD4680BD00BF0020024000100240CE
:10102800CC120008000000200400002080B489B021
:1010380000AF0023FB610023BB613D4B9B6803F0BD
:101048000C033B613A4BDB6803F00303FB603B692D
:10105800002B05D03B690C2B21D1FB68012B1ED13D
:10106800334B1B6803F00803002B07D1304BD3F830
:1010780094301B0A03F00F03FB6105E02C4B1B683F
:101088001B0903F00F03FB612A4AFB6952F823305E
:10109800FB613B69002B0DD1FB69BB610AE03B6931
:1010A800042B02D1244BBB6104E03B69082B01D11E
:1010B800224BBB613B690C2B33D11D4BDB6803F022
:1010C8000303BB60BB68022B02D0032B03D005E0EF
:1010D800194B7B6105E0194B7B6102E0FB697B6181
:1010E80000BF134BDB681B0903F0070301337B6068
:1010F8000F4BDB681B0A03F07F037A6902FB03F2DC
:101108007B68B2FBF3F37B61094BDB685B0E03F092
:10111800030301335B003B607A693B68B2FBF3F37E
:10112800BB61BB6918462437BD465DF8047B704730
:1011380000100240DC1200080024F40000127A00BB
:1011480080B586B000AF786000233B612A4B9B6D69
:1011580003F08053002B03D0FFF73CFA786114E0CA
:10116800254A254B9B6D43F080539365224B9B6D1D
:1011780003F08053FB60FB68FFF72CFA78611E4A86
:101188001D4B9B6D23F0805393657B69B3F5007FFE
:101198000BD17B68802B19D97B68A02B02D902233D
:1011A8003B6113E001233B6110E07B68802B02D98F
:1011B80003233B610AE07B68802B02D102233B6159
:1011C80004E07B68702B01D101233B610B490B4B79
:1011D8001B6823F007023B6913430B60074B1B682E
:1011E80003F007023B699A4201D0012300E0002383
:1011F80018461837BD4680BD001002400020024046
:10120800DFF834D0FFF77CF80C480D490D4A00236D
:1012180002E0D458C4500433C4188C42F9D30A4AA3
:101228000A4C002301E013600432A242FBD300F011
:1012380011F8FEF7C5FFFEE700800120000000203E
:101248000C000020141300080C0000202C000020C3
:10125800FEE7000070B50D4E0D4CA41BA410002530
:10126800A54209D10B4E0C4C00F020F8A41BA41089
:101278000025A54205D170BD56F82530984701359F
:10128800EEE756F8253098470135F2E70C130008C9
:101298000C1300080C13000810130008024403463E
:1012A800934200D1704703F8011BF9E7F8B500BF76
:1012B800F8BC08BC9E467047F8B500BFF8BC08BC2F
:0412C8009E46704787
:1012CC0000000000000000000102030406070809EA
:1012DC00A0860100400D0300801A060000350C00AA
:1012EC0040420F0080841E0000093D0000127A006D
:1012FC000024F40000366E010048E801006CDC02AA
:04130C00AD01000827
:041310008901000847
:0C13140000093D00100000000100000076
:0400000508001209D4
:00000001FF
